{
  "contractName": "SaveFile",
  "abi": [
    {
      "constant": false,
      "inputs": [
        {
          "internalType": "string",
          "name": "_fileName",
          "type": "string"
        },
        {
          "internalType": "string",
          "name": "_fileHash",
          "type": "string"
        }
      ],
      "name": "addData",
      "outputs": [],
      "payable": false,
      "stateMutability": "nonpayable",
      "type": "function"
    },
    {
      "constant": true,
      "inputs": [],
      "name": "getData",
      "outputs": [
        {
          "components": [
            {
              "internalType": "string",
              "name": "fileName",
              "type": "string"
            },
            {
              "internalType": "string",
              "name": "fileHash",
              "type": "string"
            }
          ],
          "internalType": "struct SaveFile.fileData[]",
          "name": "",
          "type": "tuple[]"
        }
      ],
      "payable": false,
      "stateMutability": "view",
      "type": "function"
    }
  ],
  "bytecode": "0x608060405234801561001057600080fd5b5061066c806100206000396000f3fe608060405234801561001057600080fd5b50600436106100365760003560e01c80633bc5de301461003b578063528407e514610059575b600080fd5b610043610075565b6040516100509190610506565b60405180910390f35b610073600480360361006e9190810190610394565b610218565b005b60606000805480602002602001604051908101604052809291908181526020016000905b8282101561020f5783829060005260206000209060020201604051806040016040529081600082018054600181600116156101000203166002900480601f0160208091040260200160405190810160405280929190818152602001828054600181600116156101000203166002900480156101555780601f1061012a57610100808354040283529160200191610155565b820191906000526020600020905b81548152906001019060200180831161013857829003601f168201915b50505050508152602001600182018054600181600116156101000203166002900480601f0160208091040260200160405190810160405280929190818152602001828054600181600116156101000203166002900480156101f75780601f106101cc576101008083540402835291602001916101f7565b820191906000526020600020905b8154815290600101906020018083116101da57829003601f168201915b50505050508152505081526020019060010190610099565b50505050905090565b600060405180604001604052808481526020018381525090806001815401808255809150509060018203906000526020600020906002020160009091929091909150600082015181600001908051906020019061027692919061029b565b50602082015181600101908051906020019061029392919061029b565b505050505050565b828054600181600116156101000203166002900490600052602060002090601f016020900481019282601f106102dc57805160ff191683800117855561030a565b8280016001018555821561030a579182015b828111156103095782518255916020019190600101906102ee565b5b509050610317919061031b565b5090565b61033d91905b80821115610339576000816000905550600101610321565b5090565b90565b600082601f83011261035157600080fd5b813561036461035f82610555565b610528565b9150808252602083016020830185838301111561038057600080fd5b61038b8382846105d6565b50505092915050565b600080604083850312156103a757600080fd5b600083013567ffffffffffffffff8111156103c157600080fd5b6103cd85828601610340565b925050602083013567ffffffffffffffff8111156103ea57600080fd5b6103f685828601610340565b9150509250929050565b600061040c83836104c2565b905092915050565b600061041f82610591565b61042981856105b4565b93508360208202850161043b85610581565b8060005b8581101561047757848403895281516104588582610400565b9450610463836105a7565b925060208a0199505060018101905061043f565b50829750879550505050505092915050565b60006104948261059c565b61049e81856105c5565b93506104ae8185602086016105e5565b6104b781610618565b840191505092915050565b600060408301600083015184820360008601526104df8282610489565b915050602083015184820360208601526104f98282610489565b9150508091505092915050565b600060208201905081810360008301526105208184610414565b905092915050565b6000604051905081810181811067ffffffffffffffff8211171561054b57600080fd5b8060405250919050565b600067ffffffffffffffff82111561056c57600080fd5b601f19601f8301169050602081019050919050565b6000819050602082019050919050565b600081519050919050565b600081519050919050565b6000602082019050919050565b600082825260208201905092915050565b600082825260208201905092915050565b82818337600083830152505050565b60005b838110156106035780820151818401526020810190506105e8565b83811115610612576000848401525b50505050565b6000601f19601f830116905091905056fea365627a7a723158204aea28be0351b8bec74803daf4435439e0c0bd9af3eb1e33bd6f40b1cd7dc67f6c6578706572696d656e74616cf564736f6c63430005100040",
  "source": "pragma solidity ^0.5.0;\r\npragma experimental ABIEncoderV2;\r\n\r\ncontract SaveFile {\r\n    // variable to store data\r\n    struct fileData{\r\n        string fileName;\r\n        string fileHash;\r\n    }\r\n\tfileData [] filesList;\r\n\t\r\n\t// Write Function\r\n\tfunction addData(string memory _fileName, string memory _fileHash) public {\r\n\t  filesList.push(fileData(_fileName,_fileHash));\r\n\t}\r\n\t// Read Function\r\n\tfunction getData() public view returns(fileData [] memory){\r\n\t  return filesList;\r\n\t}\r\n}",
  "sourcePath": "E:\\Blockchain\\MajorChain\\save_block\\contracts\\SaveFile.sol",
  "compiler": {
    "name": "solc",
    "version": "0.5.16+commit.9c3226ce.Emscripten.clang"
  },
  "schemaVersion": "3.1.0",
  "updatedAt": "2020-12-10T05:04:44.085Z",
  "networkType": "ethereum",
  "devdoc": {
    "methods": {}
  },
  "userdoc": {
    "methods": {}
  }
}